:060000000A128A110C280F
:10000800FE00030EF0000A08F1000A128A113728D0
:100018000A128A110F2883010A128A1113288316DB
:1000280003138601831203138601831603138801C1
:100038008312031388018E018F01101290129014FD
:10004800901510111014171497101715971183167F
:1000580003130C150B178B1783120E088800302812
:100068000A128A110C28831203130C1D3C283D2800
:100078004028150886000C1171088A00700E83004C
:06008800FE0E7E0E0900D1
:02400E00793FF8
:00000001FF
