:060000000A128A110C280F
:10000800FE00030EF0000A08F1000A128A111428F3
:100018000A128A110F28F20183010A128A11312863
:10002800831203130C1C19281A282A280130F207F6
:1000380014307206031D212822282528013087063E
:10004800F2013C308F00AF308E000C1071088A002E
:10005800700E8300FE0E7E0E090083160313071030
:100068008312031307103C308F00AF308E009010BE
:100078001012901207141014831603130C14831211
:1000880003130C100B178B1748280A128A110C2817
:02400E00793FF8
:00000001FF
