:060000000A128A11EE2F26
:100F2200FC346034DA34F2346634B634BE34E0343D
:100F3200FE34F6347E088A007F0882000A128A1183
:100F42009B270A128A118000840A04087D0603196D
:100F52000034FF0A0319FE0A9F2F2B308400203031
:100F6200F0000A30F10083130008F200040AF300D3
:100F72007008840072088000040AF000730884007C
:100F8200F10BB42F83120313AA01831603138601F4
:100F92008312031386012A08203E8400831300086B
:100FA20086000330F2008A30F1005530F000F00B79
:100FB200D82FF10BD82FF20BD82FDF2F013083124D
:100FC2000313AA070A302A06031DE82FE92FCC2FA4
:100FD200AA01CC2F0A128A11002883133530FD0092
:100FE2000730FE009130FF002B3084000A128A1174
:0E0FF2009F270A128A1183010A128A11AE2F5C
:02400E00793FF8
:00000001FF
