:060000000A128A110C280F
:10000800FE00030EF3000A08F4000A128A113D28C4
:100018000A128A110F2883010A128A1113288316DB
:10002800031306148614071087108312031307148A
:100038000630F7001330F600AD30F500F50B222836
:10004800F60B2228F70B22282928831203130710FE
:100058000630F7001330F600AD30F500F50B322806
:10006800F60B3228F70B3228392819280A128A1178
:100078000C2883120313061C42284328542887148B
:100088000630F2001330F100AD30F000F00B4A28D2
:10009800F10B4A28F20B4A285128831203138710C0
:0E00A80074088A00730E8300FE0E7E0E09009F
:02400E00793FF8
:00000001FF
