:060000000A128A110C280F
:10000800FE00030EF0000A08F1000A128A113128D6
:100018000A128A110F28F20183010A128A11142880
:100028008316031307128312031307128E018F011D
:100038009010101290121014C33096005030950092
:100048001714971417119715831603130C150B170C
:100058008B172D280A128A110C28831203130C1DE2
:100068003628372843280130F2070A307206031D64
:100078003E283F28422810308706F2010C117108EB
:0C0088008A00700E8300FE0E7E0E090040
:02400E00793FF8
:00000001FF
