:060000000A128A110C280F
:10000800FE00030EF0000A08F1000A128A114C28BB
:100018000A128A110F2883010A128A1113288316DB
:100028000313871007118312031387100711831610
:100038000313861401130B168B178312071506304A
:10004800F4001330F300AD30F200F20B2928F30B63
:100058002928F40B292830288312031307110630A6
:10006800F4001330F300AD30F200F20B3928F30B33
:100078003928F40B3928402883120313861C452895
:10008800462821280230870621280A128A110C28BE
:100098008B1C4F28502855280230831203138706DB
:1000A8008B1071088A00700E8300FE0E7E0E090008
:02400E00793FF8
:00000001FF
