:060000000A128A11FC2F18
:100E8600F0007008831203178D00831603178C1366
:100E96000C14831203170C08F10071080800F10006
:100EA600831603178C18582F592F532F7108831246
:100EB60003178D0070088C00831603178C130C150E
:100EC6008B1355308D00AA308D008C148B170C11A6
:100ED6008C100800FF3083160313860088018312E6
:100EE6000313880183120313861C7A2F7B2F922FFC
:100EF6000330F00076080A128A1152270A128A1164
:100F06000130F6070330F4008A30F3005530F20062
:100F1600F20B8B2FF30B8B2FF40B8B2F922F83124D
:100F26000313061D972F982FAF2F0530F000760874
:100F36000A128A1152270A128A110130F607033063
:100F4600F4008A30F3005530F200F20BA82FF30BB1
:100F5600A82FF40BA82FAF2F83120313861DB42FCF
:100F6600B52FCC2F0730F00076080A128A115227C7
:100F76000A128A110130F6070330F4008A30F300B2
:100F86005530F200F20BC52FF30BC52FF40BC52F0E
:100F9600CC2F03307606031DD12FD22FD32FF60187
:100FA60083120313061CD82FD92F752FF501750848
:100FB6000A128A1143270A128A1183120313880020
:100FC6000630F4001330F300AD30F200F20BE92FD7
:100FD600F30BE92FF40BE92FF02F0130F50703305F
:100FE6007502031CF72FF82FDA2F752F0A128A11B4
:0A0FF600002883010A128A116D2FF2
:02400E00793FF8
:00000001FF
