:060000000A128A11FC2F18
:100F4000F2018316031386018312031386018316AD
:100F5000031307148714C92F0130F000720AB22F4F
:100F60000310F00DFF3E031DB02F70088600013006
:100F7000F2078230F100DD30F000F00BBD2FF10BF5
:100F8000BD2FC22F04307206031DC72FC82FC92FD3
:100F9000F201831203130718CE2FCF2FAC2FF22F9D
:100FA000720AFF000830F0000030F100DA2F710DF6
:100FB000F10CF00CFF0BD72F70088312031386007F
:100FC0000130F2078230F100DD30F000F00BE62F47
:100FD000F10BE62FEB2F04307206031DF02FF12FDB
:100FE000F22FF201831203138718F72FF82FD02F57
:100FF000C92F0A128A11002883010A128A11A02F10
:02400E00793FF8
:00000001FF
