:060000000A128A110C280F
:10000800FE00030EF0000A08F1000A128A112D28DA
:100018000A128A110F28F20183010A128A11142880
:100028008316031307108312031307108E018F0121
:1000380090101012901207141014831603130C1446
:10004800831203130C100B178B1729280A128A1115
:100058000C28831203130C1C322833283F28013044
:10006800F2070F307206031D3A283B283E2801305C
:100078008706F2010C1071088A00700E8300FE0ECC
:040088007E0E0900DF
:02400E00793FF8
:00000001FF
