:060000000A128A11FC2F18
:100F0C00831603138601831203138601F601F20183
:100F1C00F3010130F000760A952F0310F00DFF3E1F
:100F2C00031D932F70088312031386000130F607FC
:100F3C002130F1007630F000F00BA22FF10BA22F34
:100F4C00000004307606031DAC2FAD2FAE2FF6013A
:100F5C000130F2070318F30A0030F3077308803AE4
:100F6C00FF0080307F02031DBD2F30307202031C46
:100F7C00C02FC12F8F2FF401F501760AFF00083026
:100F8C00F0000030F100CD2F710DF10CF00CFF0BC7
:100F9C00CA2F70088312031386000130F607213024
:100FAC00F1007630F000F00BD92FF10BD92F0000A7
:100FBC0004307606031DE32FE42FE52FF6010130F4
:100FCC00F4070318F50A0030F5077508803AFF009E
:100FDC0080307F02031DF42F30307402031CF72F76
:100FEC00F82FC32F8D2F0A128A11002883010A12A1
:040FFC008A11862FA1
:02400E00793FF8
:00000001FF
