:060000000A128A11FC2F18
:100EF200831603138601831203138601F701F3019C
:100F0200F4010130F000770A882F0310F00DFF3E44
:100F1200031D862F70088312031386000130F70722
:100F22002130F1007630F000F00B952FF10B952F68
:100F3200000004307706031D9F2FA02FA12FF70179
:100F42000130F3070318F40A0030F4077408803AFA
:100F5200FF0080307F02031DB02F30307302031C6C
:100F6200B32FB42F822F0630F2001330F100AD30D0
:100F7200F000F00BBA2FF10BBA2FF20BBA2FC12FE0
:100F8200F501F601770AFF000830F0000030F100A9
:100F9200CD2F710DF10CF00CFF0BCA2F70088312CC
:100FA200031386000130F7072130F1007630F0009C
:100FB200F00BD92FF10BD92F000004307706031D57
:100FC200E32FE42FE52FF7010130F5070318F60AA6
:100FD2000030F6077608803AFF0080307F02031D5A
:100FE200F42F30307502031CF72FF82FC32F802FF8
:0E0FF2000A128A11002883010A128A11792F2F
:02400E00793FF8
:00000001FF
